:100000000C9446000C9450000C9450000C9450003A
:100010000C9450000C9450000C9450000C94500020
:100020000C9450000C9450000C9450000C94500010
:100030000C9450000C9450000C9450000C94500000
:100040000C9450000C9450000C9450000C945000F0
:100050000C9450000C9450000C9450000C945000E0
:100060000C9450000C9450000C9450000C945000D0
:100070000C9450000C9450000C9450000C945000C0
:100080000C9450000C9450000C94500011241FBE8E
:10009000CFEFD0E1DEBFCDBF0E947E000C94DE002A
:1000A0000C940000FC01A281B3819C918581448164
:1000B00021E030E001C0220F4A95EAF7922369F46B
:1000C0008130D1F42FEF30E792E021503040904062
:1000D000E1F700C000001582089581110DC02FEFD7
:1000E00030E782E0215030408040E1F700C000005E
:1000F00081E0858382E0089580E00895CF93DF93C7
:10010000CDB7DEB762970FB6F894DEBF0FBECDBF96
:10011000B89A41E350E05E874D8720E330E0388BAA
:100120002F87198A81E08A8B889858874F833A876E
:1001300029878B878C8789985A8349833C832B83B3
:1001400092E09D838E838A98BC9A83B78E6683BF24
:1001500011E0CE010D960E945200823059F4C09AEF
:1001600080E081BFEFE3FCE93197F1F700C00000C8
:100170008F5FF7CFCE0107960E945200823059F46C
:10018000C09811BEFFEF23EC89E0F1502040804081
:10019000E1F700C00000CE0101960E9452008230BB
:1001A000C1F688B3812788BB9FEFE3ECF9E091505B
:1001B000E040F040E1F700C00000CBCFF894FFCF63
:00000001FF
